:04000000A0EF3DF040
:107B27000295869590959495921200000EFDEC3D76
:107B3700F0000EFDEC3DF01200270EF66E7B0EF7FF
:107B47006E000EF86E0900F5CF13F0126A000EF8FA
:107B57006E000129EF3EF00B6E94EC3DF0B8EF3D5F
:107B6700F00B060B50D8EC3DF00B50D8A4BEEF3D00
:107B7700F0C0EF3DF0B4EF3DF01200096E839209BB
:107B870050FDEC3DF00750FDEC3DF0CEEF3DF00829
:107B97000699EC3DF00850D8A4D4EF3DF0D6EF3D60
:107BA700F0CBEF3DF0838212000A6E000E076E0ADB
:107BB700C008F0090EC1EC3DF0070E076E0AC008B9
:107BC700F00B0EC1EC3DF0070E076E0AC008F00A75
:107BD7000EC1EC3DF0010E076E0AC008F00C0EC195
:107BE700EC3DF0000E076E0AC008F0010EC1EC3D37
:107BF700F01200056E000E066E839406C001F005B4
:107C070050026E036A012A0CEF3EF0D89002360349
:107C170036012E09EF3EF002BE14EF3EF018EF3E9C
:107C2700F0046A042A19EF3EF0046A83500418FE30
:107C37000B0418836E8384062A070E066426EF3E1C
:107C4700F028EF3EF000EF3EF012000F0EC16E027B
:107C57000EAFEC3DF0210E126E000E116E010E10EC
:107C67006E1250080DF70EF3240C6E7C0EF4200DE7
:107C77006E10500C2611500D22FF0E0C240E6EFFB5
:107C87000E0D200F6E0EC0F6FF0FC0F7FF0800F5B0
:107C9700CF07F0000E086E1050C1EC3DF0104A11EE
:107CA7002A11BE60EF3EF0115009E1080E105CD8B2
:107CB700A060EF3EF062EF3EF034EF3EF00D0E0DA8
:107CC7006EAF0E0C6EB60EE82EFED70C2EFCD70D3F
:107CD7002EFAD700D0122A3A0E126475EF3EF077CB
:107CE700EF3EF030EF3EF02EEF3EF000EF00F000F9
:107CF70000000000000000000000005F5F000000BF
:107D07000007070000070700247E7E247E7E2400EC
:107D170000242E6B6B3A1200006636180C66620060
:107D2700307A4F5D377250000000000707000000EF
:107D37000000003E7F6341000041637F3E0000007A
:107D4700082A3E1C1C3E2A080008083E3E08080078
:107D57000080E0600000000000080808080808002C
:107D67000000006060000000006030180C0603008F
:107D7700003E7F49457F3E000040427F7F404000F4
:107D870000426371594F4600002161454F7B310026
:107D970000181C167F7F100000276745457D3900B6
:107DA700003E7F4949793000000171790D070300D2
:107DB70000367F49497F360000064F49693F1E005C
:107DC7000000003636000000000040763600000054
:107DD7000000081C366341000024242424242400C6
:107DE700004163361C08000000020351590F0600CA
:107DF700003E7F415D575E00007C7E13137E7C0052
:107E0700007F7F49497F3600003E7F414163220062
:107E1700007F7F41633E1C00007F7F494949410045
:107E2700007F7F0909090100003E7F4149797900F8
:107E3700007F7F08087F7F000000417F7F410000AF
:107E470000206040407F3F00007F7F1C3663410079
:107E5700007F7F40404040007F7F060C067F7F0009
:107E6700007F7F0E1C7F7F00003E7F41417F3E00E9
:107E7700007F7F09090F0600003E7F51217F5E00CA
:107E8700007F7F09197F660000266F49497B320012
:107E97000001017F7F010100003F7F40407F7F009D
:107EA700001F3F60603F1F007F7F3018307F7F00DB
:107EB7000063771C1C77630000070F78780F0700B3
:107EC700006171594D4743000000007F7F41410029
:107ED7000003060C183060000041417F7F0000005E
:107EE700080C0603060C0800404040404040400094
:107EF70002060C080000000000207454547C78002F
:107F0700007F7F44447C380000387C4444440000B0
:107F170000387C44447F7F0000387C54545C180050
:107F270000047E7F050500000098BCA4A4FC7C002B
:107F3700007F7F04047C78000000447D7D400000C2
:107F4700008080FD7D000000007F7F10386C4400BA
:107F57000000417F7F4000007C7C0C180C7C78007F
:107F6700007C7C04047C780000387C44447C380026
:107F770000FCFC44447C380000387C4444FCFC0092
:107F8700007C7C04040C080000485C5454742400F2
:107F97000004043E7E444400003C7C40407C7C005E
:107FA700001C3C60603C1C001C7C6030607C1C003A
:107FB70000446C38386C4400009CBCA0A0FC7C00DA
:107FC700004464745C4C44000000083E7741410063
:107FD700000000FFFF000000004141773E0800005D
:107FE7000C06060C18180C000060785E46586000F6
:097FF70000000000000000000081
:020000040020DA
:08000000FFFFFFFFFFFFFFFF00
:020000040030CA
:0E000000000C191EFF8180FF0FC00FE00F40A3
:00000001FF
