:04000000B0EF3EF02F
:107D6000000EF86E0001B5EF3EF0000E926E9368C3
:107D7000000E956E81500F0B096E81380F0B0F0BA3
:107D80000A6E09500A240B6E0BC001F0026A000E45
:107D9000046E0A0E036E3AEC3FF001509CEC3FF08B
:107DA000806E0BC001F0026A000E046E0A0E036EB4
:107DB000E2EC3EF001509CEC3FF0836EBAEF3EF0F7
:107DC00000EF00F0000E066E02BEEBEF3EF0E9EFB2
:107DD0003EF0F1EF3EF0016C021ED8B0022A010E17
:107DE000066E04BEF8EF3EF0F6EF3EF0FCEF3EF01C
:107DF000036C041ED8B0042A03500410D8B403EF57
:107E00003FF005EF3FF029EF3FF0010E056E0DEF5B
:107E10003FF0D89003360436052A04AE12EF3FF047
:107E200014EF3FF009EF3FF00350015C045002589B
:107E3000D8A01DEF3FF01FEF3FF023EF3FF00350BE
:107E4000015E0450025AD89004320332052E14EF1A
:107E50003FF00650D8B42FEF3FF031EF3FF035EF51
:107E60003FF0016C021ED8B0022A01C001F002C02E
:107E700002F01200000E066E04BE43EF3FF041EF29
:107E80003FF049EF3FF0036C041ED8B0042A010E06
:107E9000066E02BE50EF3FF04EEF3FF056EF3FF060
:107EA000016C021ED8B0022A010E061A000E086EDE
:107EB000000E076E03500410D8B461EF3FF063EF7B
:107EC0003FF08BEF3FF0010E056E6BEF3FF0D89067
:107ED00003360436052A04AE70EF3FF072EF3FF030
:107EE00067EF3FF0D890073608360350015C045026
:107EF0000258D8A07EEF3FF080EF3FF085EF3FF0D3
:107F00000350015E0450025A0780D89004320332B5
:107F1000052E72EF3FF00650D8B491EF3FF093EF8B
:107F20003FF097EF3FF0076C081ED8B0082A07C053
:107F300001F008C002F01200036E000E046EC9EFDB
:107F40003FF03F0E046EFEEF3FF0060E046EFEEFB4
:107F50003FF05B0E046EFEEF3FF04F0E046EFEEF3F
:107F60003FF0660E046EFEEF3FF06D0E046EFEEF06
:107F70003FF07D0E046EFEEF3FF0070E046EFEEF45
:107F80003FF07F0E046EFEEF3FF06F0E046EFEEFCB
:107F90003FF00350016E026A0250000AD8B4D3EFDA
:107FA0003FF0FEEF3FF00150000AD8B4A1EF3FF0E0
:107FB000010AD8B4A5EF3FF0030AD8B4A9EF3FF007
:107FC000010AD8B4ADEF3FF0070AD8B4B1EF3FF0E3
:107FD000010AD8B4B5EF3FF0030AD8B4B9EF3FF0C7
:107FE000010AD8B4BDEF3FF00F0AD8B4C1EF3FF09B
:107FF000010AD8B4C5EF3FF0FEEF3FF00450120085
:020000040020DA
:08000000FFFFFFFFFFFFFFFF00
:020000040030CA
:0E0000000008191EFF8185FF0FC00FE00F40A2
:00000001FF
