:0400000007EF00F016
:0A0008005E8231ED0DF06CEF0DF09B
:10080000000000004B000450800B0D6E04500424C7
:100810000F6E03AE0EEF04F010EF04F011EF04F0D2
:100820000F800F50D8B417EF04F019EF04F02EEF3B
:1008300004F00F28D8A41FEF04F021EF04F029EFF3
:1008400004F0000E016E000E026E000E036E000E2C
:10085000046E038E000E046E36EF04F0000E016E7F
:10086000000E026E000E036E000E046E0850800B28
:100870000E6E0D500E18D8B440EF04F042EF04F0A5
:1008800043EF04F00D8C085008240E6E07AE4BEFBA
:1008900004F04DEF04F04EEF04F00E800E50D8B48B
:1008A00054EF04F056EF04F06BEF04F00E28D8A4D8
:1008B0005CEF04F05EEF04F066EF04F0000E056EEE
:1008C000000E066E000E076E000E086E078E000EFC
:1008D000086E73EF04F0000E056E000E066E000E3B
:1008E000076E000E086E0F500E5CD8B07AEF04F061
:1008F0007CEF04F0A3EF04F00DAC81EF04F083EF84
:1009000004F085EF04F0800E0D1A0FC010F00EC039
:100910000FF010C00EF001C010F005C001F010C0C3
:1009200005F002C010F006C002F010C006F003C0CF
:1009300010F007C003F010C007F004C010F008C0AA
:1009400004F010C008F0000E106E0F500EC009F039
:100950000A6A095E000E0A5A0ABEB8EF04F00A508D
:1009600009E11A0E095CD8A0B8EF04F0BAEF04F060
:10097000F1EF04F00150021003100410D8A4C3EFEB
:1009800004F0C6EF04F0010EC7EF04F0000E106E85
:10099000000E016E000E026E000E036E000E046E5D
:1009A0000EC00FF0FAEF04F010A0D9EF04F0DBEF67
:1009B00004F0E1EF04F0D89010300109106EE3EF7D
:1009C00004F0D890103201A0E8EF04F0EAEF04F050
:1009D000EBEF04F0108E04340432033202320132A1
:1009E0000F2A0E500F5CD8A0F8EF04F0FAEF04F0D5
:1009F000D4EF04F00DBCFFEF04F001EF05F041EF80
:100A000005F00F50D8A407EF05F009EF05F013EF3C
:100A100005F0000E016E000E026E000E036E000E59
:100A2000046E62EF06F005500126065002220750C0
:100A300003220850042204A020EF05F022EF05F065
:100A4000CEEF05F010A027EF05F029EF05F02FEF0E
:100A500005F0D89010300109106E31EF05F0D890F4
:100A6000103201A036EF05F038EF05F039EF05F050
:100A7000108E043404320332023201320F2ACEEFD8
:100A800005F00550015C0650025807500358045009
:100A9000800A096E0850800A0958D8B052EF05F054
:100AA00054EF05F07FEF05F00150055C096E025030
:100AB00006580A6E035007580B6E045008580C6E07
:100AC000FF0E0924016EFF0E0A20026EFF0E0B209E
:100AD000036EFF0E0C20046E800E0D1A106C105069
:100AE000D8A475EF05F077EF05F087EF05F0010E5C
:100AF0000126000E02220322042287EF05F0055092
:100B0000015E0650025A0750035A0850045A015019
:100B1000021003100410D8A490EF05F092EF05F036
:100B2000C7EF05F01050D8A498EF05F09AEF05F044
:100B3000C7EF05F0000E016E000E026E000E036E90
:100B4000000E046E62EF06F0D890013602360336CE
:100B5000043610AEAEEF05F0B0EF05F0B1EF05F0E2
:100B6000018010A0B6EF05F0B8EF05F0BCEF05F07E
:100B7000D8801036BEEF05F0D89010360F50D8B49C
:100B8000C4EF05F0C6EF05F0C7EF05F00F0603AEA2
:100B9000CCEF05F0CEEF05F0A4EF05F0000E0E6EE1
:100BA00010AED5EF05F0D7EF05F0EFEF05F010C070
:100BB00009F07F0E0916D8B4E0EF05F0E2EF05F07A
:100BC000E6EF05F0010E0E6EEFEF05F001A0EBEF82
:100BD00005F0EDEF05F0EFEF05F0E2EF05F00E5058
:100BE000D8B4F5EF05F0F7EF05F022EF06F0010EAF
:100BF0000126000E02220322042204A002EF06F0C6
:100C000004EF06F022EF06F001C009F002C00AF07E
:100C100003C00BF004C00CF00C340C320B320A325F
:100C2000093209C001F00AC002F00BC003F00CC089
:100C300004F00F28D8B41FEF06F021EF06F022EFE2
:100C400006F00F2A0F28D8B428EF06F02AEF06F096
:100C500032EF06F00F50D8A430EF06F032EF06F076
:100C600044EF06F0000E016E000E026E000E036EE1
:100C7000000E046E0F50D8A440EF06F042EF06F0CD
:100C800044EF06F0000E0D6E0FA049EF06F04BEF9B
:100C900006F04EEF06F0038E4FEF06F0039ED8905D
:100CA0000F30046E0DAE57EF06F059EF06F05AEF15
:100CB00006F0048E01C001F002C002F003C003F090
:100CC00004C004F012001250800B1B6E125012244C
:100CD000216E11AE6EEF06F070EF06F071EF06F0C8
:100CE00021802150D8B477EF06F079EF06F08CEF31
:100CF00006F02128D8A47FEF06F081EF06F089EFF7
:100D000006F0000E0F6E000E106E000E116E000E3B
:100D1000126E118E94EF06F0000E0F6E000E106E24
:100D2000000E116E000E126E1650800B1B1A16501C
:100D30001624206E15AE9FEF06F0A1EF06F0A2EF8D
:100D400006F020802050D8B4A8EF06F0AAEF06F0F5
:100D5000BDEF06F02028D8A4B0EF06F0B2EF06F001
:100D6000BAEF06F0000E136E000E146E000E156E34
:100D7000000E166E158EC5EF06F0000E136E000EF7
:100D8000146E000E156E000E166E2050D8B4CBEF08
:100D900006F0CDEF06F0D5EF06F02150D8A4D3EF42
:100DA00006F0D5EF06F0DFEF06F0000E0F6E000E36
:100DB000106E000E116E000E126E77EF08F01550D7
:100DC0000F02F3CF26F0F4CF27F026501C6E1D6AD9
:100DD0001E6A1F6A2750226E236A246A256A1450ED
:100DE0001002F3CF26F0F4CF27F026501C26000E79
:100DF0001D221E221F2227502226000E23222422DB
:100E0000252213501102F3CF26F0F4CF27F02650FD
:100E10001C26000E1D221E221F2227502226000EF5
:100E20002322242225221EC01FF01DC01EF01CC03C
:100E30001DF01C6A13501002F3CF26F0F4CF27F0F8
:100E400026501C2627501D22000E1E22000E1F2297
:100E500014500F02F3CF26F0F4CF27F026501C26B3
:100E600027501D22000E1E22000E1F221EC01FF042
:100E70001DC01EF01CC01DF01C6A13500F02F3CFE2
:100E800026F0F4CF27F026501C2627501D22000EF6
:100E90001E22000E1F2215501002F3CF26F0F4CFB1
:100EA00027F02650222627502322000E2422000E4F
:100EB000252214501102F3CF26F0F4CF27F026504C
:100EC000222627502322000E2422000E2522155010
:100ED0001102F3CF26F0F4CF27F02650176E2750DB
:100EE000186E196A1A6A19C01AF018C019F017C0DA
:100EF00018F0176A1750222618502322195024225E
:100F00001A5025221CC017F01DC018F01EC019F081
:100F10001FC01AF0190E92EF07F0D8901A3219324A
:100F200018321732E82E8DEF07F01750222618508E
:100F30002322195024221A5025221EC01FF01DC042
:100F40001EF01CC01DF01C6A205021C017F0186A4A
:100F50001726000E1822820E1724266EFF0E182068
:100F6000276EC8EF07F0D890223623362436253670
:100F70001FAEBDEF07F0BFEF07F0C0EF07F0228014
:100F8000D8901C361D361E361F362606D8A02706DA
:100F900024AECDEF07F0CFEF07F0B3EF07F0000E70
:100FA000206E1FAED6EF07F0D8EF07F0FCEF07F08A
:100FB000FF0E1C14176EFF0E1D14186EFF0E1E146C
:100FC000196E7F0E1F141A6E1750181019101A1070
:100FD000D8B4EDEF07F0EFEF07F0F3EF07F0010EF5
:100FE000206EFCEF07F022A0F8EF07F0FAEF07F011
:100FF000FCEF07F0EFEF07F02050D8B402EF08F055
:1010000004EF08F028EF08F0010E2226000E23223C
:101010002422252225A00FEF08F011EF08F028EF79
:1010200008F022C017F023C018F024C019F025C022
:101030001AF01A341A3219321832173217C022F045
:1010400018C023F019C024F01AC025F0264A272A18
:1010500027BE33EF08F0275008E12628D8A033EF49
:1010600008F035EF08F03FEF08F0000E226E000E9A
:10107000236E800E246E7F0E256E6DEF08F027BE66
:101080004CEF08F0275006E12604D8B04AEF08F0EC
:101090004CEF08F058EF08F0000E226E000E236EA1
:1010A000000E246E000E256E000E1B6E6DEF08F014
:1010B00026C021F0FF0E2216FF0E23167F0E2416E7
:1010C000000E251621A067EF08F069EF08F06AEF1F
:1010D00008F0248ED8902130256E1B50251222C096
:1010E0000FF023C010F024C011F025C012F0120040
:1010F00074C03AF075C03BF076C03CF077C03DF06C
:1011000028C03AF029C03BF02AC03CF02BC03DF08B
:101110003AC02CF03BC02DF03CC02EF03DC02FF06B
:10112000180E98EF08F0D8902F322E322D322C3234
:10113000E82E93EF08F02C50346E356A35BEAAEFD6
:1011400008F0355009E1960E345CD8A0AAEF08F0FB
:10115000ACEF08F0B6EF08F028C028F029C029F05D
:101160002AC02AF02BC02BF04EEF0AF03AC02CF028
:101170003BC02DF03CC02EF03DC02FF0200EC6EF3E
:1011800008F0D8902F322E322D322C32E82EC1EFBB
:1011900008F02C502D102E102F10D8B4D2EF08F0DC
:1011A000D4EF08F0E6EF08F028C001F029C002F003
:1011B0002AC003F02BC004F050EC0DF001C028F061
:1011C00002C029F003C02AF004C02BF035BEF4EFB2
:1011D00008F0355007E17E0E345CD8B0F2EF08F02D
:1011E000F4EF08F010EF09F03AC00FF03BC010F038
:1011F0003CC011F03DC012F0000E136E000E146ED4
:10120000000E156E000E166E63EC06F00FC028F08F
:1012100010C029F011C02AF012C02BF04EEF0AF0D6
:10122000000E056E000E066E000E076E4B0E086E69
:1012300028C001F029C002F02AC003F02BC004F03E
:1012400003EC04F001C036F002C037F003C038F000
:1012500004C039F0000E056E000E066E000E076E1B
:10126000CB0E086E36C001F037C002F038C003F074
:1012700039C004F003EC04F001C030F002C031F0DA
:1012800003C032F004C033F030C011F031C012F0AE
:1012900032C013F033C014F028C015F029C016F086
:1012A0002AC017F02BC018F0EBEC0CF011C03EF088
:1012B00012C03FF013C040F014C041F0000E016EA8
:1012C000000E026E000E036E3F0E046E3EC005F06F
:1012D0003FC006F040C007F041C008F069EC0CF0D8
:1012E000D8B075EF09F077EF09F0ADEF09F028C03D
:1012F00005F029C006F02AC007F02BC008F03EC058
:1013000001F03FC002F040C003F041C004F003EC24
:1013100004F001C036F002C037F003C038F004C05A
:1013200039F036C001F037C002F038C003F039C0E0
:1013300004F0000E056E000E066E800E076EBF0EE6
:10134000086E03EC04F001C03EF002C03FF003C0A1
:1013500040F004C041F016EF0AF0000E016E000EDE
:10136000026E000E036EBF0E046E3EC005F03FC05D
:1013700006F040C007F041C008F069EC0CF0D8A0BE
:10138000C4EF09F0C6EF09F0FCEF09F028C005F042
:1013900029C006F02AC007F02BC008F03EC001F0BB
:1013A0003FC002F040C003F041C004F003EC04F081
:1013B00001C036F002C037F003C038F004C039F085
:1013C00036C001F037C002F038C003F039C004F075
:1013D000000E056E000E066E800E076E3F0E086E44
:1013E00003EC04F001C03EF002C03FF003C040F047
:1013F00004C041F016EF0AF03EC001F03FC002F019
:1014000040C003F041C004F028C005F029C006F038
:101410002AC007F02BC008F003EC04F001C03EF036
:1014200002C03FF003C040F004C041F03AC02CF0CD
:101430003BC02DF03CC02EF03DC02FF0200E26EF1B
:101440000AF0D8902F322E322D322C32E82E21EF96
:101450000AF02C502D102E102F10D8B432EF0AF0B5
:1014600034EF0AF046EF0AF03EC001F03FC002F050
:1014700040C003F041C004F050EC0DF001C03EF05C
:1014800002C03FF003C040F004C041F03EC028F06D
:101490003FC029F040C02AF041C02BF01200096E75
:1014A0000950D8B456EF0AF058EF0AF07AEF0AF074
:1014B00004BE5FEF0AF05DEF0AF07AEF0AF001C0B8
:1014C00005F002C006F003C007F004C008F0051ED6
:1014D000061E071E081E052A000E062207220822E5
:1014E00005C00BF006C00CF007C00DF008C00EF0F0
:1014F00082EF0AF001C00BF002C00CF003C00DF047
:1015000004C00EF00150021003100410D8A48BEF99
:101510000AF08DEF0AF097EF0AF0000E016E000E50
:10152000026E000E036E000E046E28EF0BF0960E96
:101530000A6EA1EF0AF00A2AD8900E320D320C3250
:101540000B32000E0B14056E000E0C14066E000E0E
:101550000D14076EFE0E0E14086E055006100710CF
:101560000810D8A4B6EF0AF0B8EF0AF09BEF0AF023
:10157000C6EF0AF00A2A010E0B26000E0C220D22DD
:101580000E22D8900E320D320C320B32000E0B149C
:10159000056E000E0C14066E000E0D14076EFF0E85
:1015A0000E14086E0550061007100810D8A4DBEFC3
:1015B0000AF0DDEF0AF0BAEF0AF0E5EF0AF00A06EA
:1015C000D8900B360C360D360E360DBEEAEF0AF00B
:1015D000ECEF0AF0F4EF0AF0020E0A60F2EF0AF004
:1015E000F4EF0AF0DFEF0AF00AB0F9EF0AF0FBEFD0
:1015F0000AF0FCEF0AF00D9ED8900A320AC005F0FE
:10160000066A076A086A05C008F0076A066A056A7A
:1016100005500B1206500C1207500D1208500E12F6
:101620000950D8B416EF0BF018EF0BF020EF0BF0C9
:1016300004BE1FEF0BF01DEF0BF020EF0BF00E8E32
:101640000BC001F00CC002F00DC003F00EC004F09E
:1016500012000E0EC16E938095908C9095928C9294
:10166000F28EF28CF292F288F18C92EC0DF0000E78
:10167000026E020E016E000E046E040E036E81EC0B
:101680000DF0000E0EEC0DF001C05CF002C05DF03C
:101690005CC001F05DC002F0000E02BEFF0E036EE2
:1016A000046E010E4FEC0AF001C00FF002C010F002
:1016B00003C011F004C012F0DE0E136EFF0E146EA4
:1016C000C70E156E3D0E166E63EC06F00FC058F097
:1016D00010C059F011C05AF012C05BF0000E016E3C
:1016E000000E026EA00E036E400E046E58C005F090
:1016F00059C006F05AC007F05BC008F069EC0CF066
:10170000D8A085EF0BF087EF0BF08BEF0BF0F29882
:101710008C90DBEF0BF058C001F059C002F05AC0BA
:1017200003F05BC004F0000E056E000E066EBE0EE8
:10173000076E420E086E69EC0CF0D8A0A2EF0BF019
:10174000A4EF0BF0A8EF0BF0F2988C80DBEF0BF01E
:10175000660E136E660E146E260E156E400E166E15
:1017600058C00FF059C010F05AC011F05BC012F011
:1017700063EC06F00FC04DF010C04EF011C04FF0FA
:1017800012C050F04DC028F04EC029F04FC02AF0D2
:1017900050C02BF078EC08F028C042F029C043F08C
:1017A0002AC044F02BC045F0E6EC0BF042C051F0EB
:1017B00043C052F0F288820E4C6EDE0EE82EFED749
:1017C0004C2EFCD741EF0BF007EF00F044344534CA
:1017D0004B6E4B50D8A4EFEF0BF0F1EF0BF0FBEF9B
:1017E0000BF0000E426E000E436E000E446E000EB3
:1017F000456E68EF0CF042C046F043C047F044C06D
:1018000048F045C049F0200E0BEF0CF0D89049325B
:10181000483247324632E82E06EF0CF046504A6E08
:10182000448EFF0E4216FF0E4316FF0E4416000EA6
:101830004516960E4B5E4BBE22EF0CF020EF0CF0DF
:1018400038EF0CF04B50800A970FD8B02AEF0CF00D
:101850002CEF0CF02EEF0CF0F1EF0BF0D89045329E
:101860004432433242324B3E2EEF0CF050EF0CF03C
:101870001F0E4B643EEF0CF040EF0CF048EF0CF005
:10188000F1EF0BF0D89042364336443645364B06DE
:101890004B50D8A44EEF0CF050EF0CF042EF0CF090
:1018A0004A50D8B456EF0CF058EF0CF060EF0CF043
:1018B000451E441E431E426C000E43224422452214
:1018C00042C042F043C043F044C044F045C045F03C
:1018D0001200000E0114096E000E02140A6E800E32
:1018E00003140B6E7F0E04140C6E09500A100B10BB
:1018F0000C10D8A47EEF0CF080EF0CF088EF0CF009
:10190000000E016E000E026E000E036E000E046EDD
:10191000000E0514096E000E06140A6E800E0714E0
:101920000B6E7F0E08140C6E09500A100B100C1071
:10193000D8A49DEF0CF09FEF0CF0A7EF0CF0000E79
:10194000056E000E066E000E076E000E086E04AEE9
:10195000ACEF0CF0AEEF0CF0B7EF0CF0016C021E28
:10196000D8B0022A031ED8B0032A800E045608AE4F
:10197000BCEF0CF0BEEF0CF0C7EF0CF0056C061ED0
:10198000D8B0062A071ED8B0072A800E0856000EC7
:10199000011A000E021A000E031A800E041A000E1D
:1019A000051A000E061A000E071A800E081A0550B6
:1019B000015C065002580750035808500458D8B02C
:1019C000E4EF0CF0E6EF0CF0E9EF0CF0D890EAEF62
:1019D0000CF0D8801200000E151A000E161A000E18
:1019E000171A800E181A11C001F012C002F013C0AD
:1019F00003F014C004F015C005F016C006F017C0BF
:101A000007F018C008F003EC04F001C011F002C0A8
:101A100012F003C013F004C014F01200076E07C0E8
:101A200003F003460346C2500318C30B0318C26EEB
:101A3000C280C282C2B21FEF0DF021EF0DF01AEF8B
:101A40000DF0C350C4CF03F0046A03C004F0036A6E
:101A50000310056E0450066E05C001F006C002F0CA
:101A600012000600F2A237EF0DF039EF0DF03FEF54
:101A70000DF08C9051C0CBFF9E929D82F2929EA25F
:101A800044EF0DF046EF0DF04EEF0DF08C80030E9D
:101A9000E82EFED700F08C909E929D925E921100EF
:101AA0000150021003100410D8B459EF0DF05BEF91
:101AB0000DF063EF0DF0000E011A000E021A000E79
:101AC000031A800E041A01C001F002C002F003C024
:101AD00003F004C004F0120000EE60F0180EEE6A8D
:101AE000E806FDE100EE51F0070EEE6AE806FDE1C2
:101AF0005E905E92000EF86E080EF76E000129EF00
:101B00000BF001C005F0054605460546C050051816
:101B1000C70B0518C06EC0500318F80B0318C06E31
:101B2000C08E1200CA50FC0B0109CA6ECA50870B46
:0C1B30003809CA6E9E929D92CA84120071
:020000040020DA
:08000000FFFFFFFFFFFFFFFF00
:020000040030CA
:0E00000000001F1EFF0181FF0FC00FE00F4028
:00000001FF
