:040000009FEF3FF03F
:107F3A00C9501200076A000EF86E0001A5EF3FF063
:107F4A000F0EC16E000E956E000E8C6E000E016E45
:107F5A00040EC4EC3FF09DEC3FF0076E07C08CFFA7
:107F6A00030E066E8A0E056E560EE82EFED7052EF5
:107F7A00FCD7062EFAD7B0EF3FF000EF00F0046E00
:107F8A00928A949E93809382DBEF3FF0C79CC698B7
:107F9A00F8EF3FF0C79CC688F8EF3FF0C78CC69849
:107FAA00F8EF3FF0C78CC688F8EF3FF00150026E39
:107FBA00036A0350000AD8B4E5EF3FF0F8EF3FF048
:107FCA000250000AD8B4CBEF3FF0010AD8B4CFEF81
:107FDA003FF0030AD8B4D3EF3FF0010AD8B4D7EF81
:107FEA003FF0F8EF3FF0C79EC6500418F00B041894
:067FFA00C66EC68A1200EB
:020000040020DA
:08000000FFFFFFFFFFFFFFFF00
:020000040030CA
:0E000000000C191EFF8180FF0FC00FE00F40A3
:00000001FF
