:04000000CCEF3FF012
:107F98000001CFEF3FF0070E936E000E956E000EB6
:107FA8008C6E8104D8A4DBEF3FF0DDEF3FF0DFEF0C
:107FB8003FF0F00E8C6E020E8118D8A4E6EF3FF069
:107FC800E8EF3FF0EAEF3FF00F0E8C6E040E8118D9
:107FD800D8A4F1EF3FF0F3EF3FF0F5EF3FF03F0E9D
:107FE8008C6E820E016EDE0EE82EFED7012EFCD7B7
:087FF800D5EF3FF000EF00F0AF
:020000040020DA
:08000000FFFFFFFFFFFFFFFF00
:020000040030CA
:0E000000000A191EFF8185FF0FC00FE00F40A0
:00000001FF
