:020000000A28CC
:10000800FE00030EF6000A08F70074290B280822E0
:10001800B8000922B900F801F901FA01FB018301CE
:10002800D22983120313B501B601B7010A30A9001A
:100038000030AA003108AC003008AB001921831247
:1000480003132908B4000A30A9000030AA000A30B6
:10005800A0000030A1003108A3003008A200B020A1
:10006800831203132108AC002008AB001921831266
:1000780003132908B5000A30A9000030AA0064302B
:10008800A0000030A1003108A3003008A200B02071
:10009800831203132108AC002008AB001921831236
:1000A80003132908B6000A30A9000030AA00E83076
:1000B800A0000330A1003108A3003008A200B0203E
:1000C800831203132108AC002008AB001921831206
:1000D80003132908B70086133408850021308312DA
:1000E8000313B3007630B200B20B7828B30B78282C
:1000F80083120313861706133508850021308312EF
:100108000313B3007630B200B20B8828B30B8828EB
:1001180083120313061786123608850021308312CE
:100128000313B3007630B200B20B9828B30B9828AB
:1001380083120313861606123708850021308312AE
:100148000313B3007630B200B20BA828B30BA8286B
:10015800831203130616080083120313A601A11FB6
:10016800B628B728BE28A009A109A00A0319A10A20
:10017800A601A60AA31FC128C228CB28A209A30941
:10018800A20A0319A30A0130A4002408A606A7019D
:10019800A801200821040319D228D3280A29A50177
:1001A800A50AE12801300310A00DA10DFF3E031D93
:1001B800D7280130A4002408A507A11FE428E528B2
:1001C800D62801300310A70DA80DFF3E031DE62811
:1001D80021082302031DF22820082202031CF52807
:1001E800F628FD282008A2022108031CA303A30265
:1001F800271401300310A10CA00CFF3E031DFE289C
:100208000130A502031D09290A29E5282608031932
:100218000E290F291429A709A809A70A0319A80A4A
:100228002808A1002708A000080083120313AF01C3
:10023800AC1F1F2920292729AB09AC09AB0A0319D0
:10024800AC0AAF01AF0AAA1F2A292B293029A9090C
:10025800AA09A90A0319AA0A29082A040319352987
:1002680036296529AE01AE0A442901300310A90DCB
:10027800AA0DFF3E031D3A290130AD002D08AE0737
:10028800AA1F4729482939292A082C02031D4E2963
:1002980029082B02031C5129522958292908AB0285
:1002A8002A08031CAC03AC0201300310AA0CA90CE9
:1002B800FF3E031D59290130AE02031D642965293B
:1002C80048292F08031969296A296F29AB09AC093C
:1002D800AB0A0319AC0A2C08AA002B08A9000800CD
:1002E8008B1C772978297F290130F8070318F90A28
:1002F8000030F9078B100B1D82298329A6290B11C1
:100308000130FA070318FB0A0030FB07E8307A06C9
:10031800033003197B06031D92299329A62979081E
:10032800F1007808F0003C30F2000030F300AD2115
:10033800710883120313B9007008B800F801F901B5
:10034800FA01FB0177088A00760E8300FE0E7E0E06
:100358000900F401F501701CB229B329B929720802
:10036800F4070318F50A7308F50701300310F20DB6
:10037800F30DFF3E031DBA2901300310F10CF00CF8
:10038800FF3E031DC12970087104031DCC29CD2926
:10039800AF297508F1007408F00008008B17831660
:1003A8000313850101308600831203138601EA21B5
:1003B8008B100B16831603130117831203133908C6
:1003C800B1003808B0001520E1290A288316031364
:1003D800811281110108F8390438810064308312D0
:0A03E800031381008B160B110800AF
:1004000002308A000408840A82070034323400343F
:04041000D2340434AA
:08400000FF3FFF3FFF3FFF3FC0
:02400E00023F6F
:00000001FF
