:0400000084EF3FF05A
:107F0000016E01C0C9FF1200000EF86E000189EF7A
:107F10003FF00F0EC16E000E016E020EC4EC3FF07A
:107F2000899A000E086E000E076E075080EC3FF035
:107F30000D0E066EAF0E056EB60EE82EFED7052EA0
:107F4000FCD7062EFAD700D0074A082A08BEB2EF9F
:107F50003FF0085009E1100E075CD8A0B2EF3FF0E7
:107F6000B4EF3FF095EF3FF0898A030E066E8A0E5C
:107F7000056E560EE82EFED7052EFCD7062EFAD734
:107F800090EF3FF000EF00F0046E929A949E938081
:107F90009392DBEF3FF0C79CC698F8EF3FF0C79C89
:107FA000C688F8EF3FF0C78CC698F8EF3FF0C78C53
:107FB000C688F8EF3FF00150026E036A0350000AD2
:107FC000D8B4E5EF3FF0F8EF3FF00250000AD8B424
:107FD000CBEF3FF0010AD8B4CFEF3FF0030AD8B49B
:107FE000D3EF3FF0010AD8B4D7EF3FF0F8EF3FF0FE
:107FF000C79EC6500418F00B0418C66EC68A12003D
:020000040020DA
:08000000FFFFFFFFFFFFFFFF00
:020000040030CA
:0E000000000C191EFF8180FF0FC00FE00F40A3
:00000001FF
