:0400000007EF00F016
:0A0008005F8261ED19F0D7EF1AF0E6
:100800000020202020202020202020202020202008
:10081000202020202000543A20256600696E6600C2
:050820006E616E000096
:10082600000E0001B76F8FC0BAF090C0BBF091C048
:10083600BCF092C0BDF0BDBF25EF04F023EF04F07D
:1008460039EF04F0010EB76FBAC060F0BBC061F0BB
:10085600BCC062F0BDC063F0E4EC1BF060C0BAF04F
:1008660061C0BBF062C0BCF063C0BDF0000E000109
:10087600B96F000EB86FFAC0A7F0FBC0A8F0B75169
:10088600D8B448EF04F04AEF04F05EEF04F0B75135
:10089600D8A450EF04F052EF04F058EF04F0000E25
:1008A6009D6F2B0E9C6F5CEF04F0000E9D6F2D0E5E
:1008B6009C6F9CC0B7F0BAC060F0BBC061F0BCC012
:1008C60062F0BDC063F0CDEC17F000016005611168
:1008D600D8A470EF04F072EF04F0A4EF04F0B7515F
:1008E600D8B478EF04F07AEF04F083EF04F0B7C0E1
:1008F60000F1A707D8A0A807000EB96F010EB86FC0
:10090600000EB825606F010EB921616F1C0E626F73
:10091600080E636FC3EC1BF00001FD0EA727FF0E48
:10092600A8238DC070F08EC071F0000E726F010E9C
:10093600736FA7C074F0A8C075F0F9EC19F013EF47
:1009460009F0BAC060F0BBC061F0BCC062F0BDC0C7
:1009560063F0CDEC17F0000160516111D8A4B6EF39
:1009660004F0B8EF04F0D7EF04F0B751D8B4BEEFF7
:1009760004F0C0EF04F0C9EF04F0B7C000F1A70718
:10098600D8A0A807000EB96F010EB86F000EB825E3
:10099600606F010EB921616F200E626F080E636FE2
:1009A600C3EC1BF08FEF04F0000EBE6F000EBF6F9E
:1009B600800EC06F3F0EC16F000EA66F000EA56FB2
:1009C600BAC060F0BBC061F0BCC062F0BDC063F0ED
:1009D600000E646F000E656F000E666F000E676F87
:1009E6000BEC19F00001D8B0FBEF04F0FDEF04F0BA
:1009F600DFEF05F009EF05F0A9C0BEF0AAC0BFF011
:100A0600ABC0C0F0ACC0C1F0A54BA62BBEC060F019
:100A1600BFC061F0C0C062F0C1C063F0000E646F79
:100A2600000E656F200E666F410E676F75EC0BF05A
:100A360060C0A9F061C0AAF062C0ABF063C0ACF0C0
:100A46000001A951BA5D606FAA51BB59616FAB51E4
:100A5600BC59626FAC51BD59636F70EC1AF000015E
:100A660063BF41EF05F063516211611109E1020EA6
:100A7600605DD8A041EF05F043EF05F0FFEF04F00D
:100A8600A9C079F0AAC07AF0ABC07BF0ACC07CF00C
:100A9600BAC07DF0BBC07EF0BCC07FF0BDC080F0A8
:100AA6004AEC17F00001D8A05BEF05F05DEF05F00A
:100AB600FFEF04F0BE51BA5D606FBF51BB59616F65
:100AC600C051BC59626FC151BD59636F70EC1AF0C9
:100AD600000163BF7CEF05F063516211611107E10C
:100AE600020E605DD8B07AEF05F07CEF05F0C5EF39
:100AF60005F0BEC0BAF0BFC0BBF0C0C0BCF0C1C0FC
:100B0600BDF0DFEF05F0BEC060F0BFC061F0C0C051
:100B160062F0C1C063F0000E646F000E656F200EB8
:100B2600666F410E676FA0EC0FF060C0BEF061C04B
:100B3600BFF062C0C0F063C0C1F00001A507D8A035
:100B4600A607BE51BA5D606FBF51BB59616FC051F8
:100B5600BC59626FC151BD59636F70EC1AF0000148
:100B660063BFC3EF05F063516211611107E1020E25
:100B7600605DD8B0C1EF05F0C3EF05F0C5EF05F035
:100B86007CEF05F0BAC079F0BBC07AF0BCC07BF050
:100B9600BDC07CF0BEC07DF0BFC07EF0C0C07FF09F
:100BA600C1C080F04AEC17F00001D8A0DDEF05F0D7
:100BB600DFEF05F086EF05F093C09FF09FC0A0F031
:100BC600FDBFE8EF05F0EAEF05F0F0EF05F0FCC039
:100BD60098F0FDC099F0F4EF05F0000E996F060E3F
:100BE600986F98C0A3F099C0A4F0A34BA42B660EEF
:100BF600A019D8A401EF06F003EF06F023EF06F0E4
:100C0600A6BF0AEF06F008EF06F016EF06F0000E94
:100C1600BE6F000EBF6F800EC06F3F0EC16F000E1D
:100C2600A66F000EA56F670E9F19D8B41DEF06F0CC
:100C36001FEF06F023EF06F0A551A327A651A42324
:100C4600000EAE6F000EAD6FBAC0AFF0BBC0B0F015
:100C5600BCC0B1F0BDC0B2F0BEC0A9F0BFC0AAF022
:100C6600C0C0ABF0C1C0ACF0B5EF06F0AFC060F0ED
:100C7600B0C061F0B1C062F0B2C063F0BEC064F053
:100C8600BFC065F0C0C066F0C1C067F0A0EC0FF051
:100C960060C079F061C07AF062C07BF063C07CF01E
:100CA60048EC14F079C0B3F07AC0B4F07BC0B5F06C
:100CB6007CC0B6F0B3C060F0B4C061F0B5C062F0FD
:100CC600B6C063F0C6EC16F060C0A1F061C0A2F039
:100CD600AFC079F0B0C07AF0B1C07BF0B2C07CF0A2
:100CE600B3C064F0B4C065F0B5C066F0B6C067F0D6
:100CF600BEC060F0BFC061F0C0C062F0C1C063F0AA
:100D060075EC0BF060C07DF061C07EF062C07FF0D4
:100D160063C080F09FEC1BF079C0AFF07AC0B0F0F2
:100D26007BC0B1F07CC0B2F0BEC060F0BFC061F065
:100D3600C0C062F0C1C063F0000E0001646F000E17
:100D4600656F200E666F410E676FA0EC0FF060C0F6
:100D5600BEF061C0BFF062C0C0F063C0C1F0000168
:100D6600AD4BAE2BA351AD5DAE51800A946FA4512D
:100D7600800A9459D8A0C2EF06F0C4EF06F039EF06
:100D860006F0BEC060F0BFC061F0C0C062F0C1C076
:100D960063F0000E646F000E656FA00E666F400E66
:100DA600676F75EC0BF060C0B3F061C0B4F062C061
:100DB600B5F063C0B6F0AFC079F0B0C07AF0B1C09C
:100DC6007BF0B2C07CF0B3C07DF0B4C07EF0B5C09D
:100DD6007FF0B6C080F04AEC17F00001D8B0F6EF0D
:100DE60006F0F8EF06F002EF07F0000EB36F000E04
:100DF600B46F000EB56F000EB66F2BEF07F0AFC0E5
:100E060060F0B0C061F0B1C062F0B2C063F0B3C0D0
:100E160064F0B4C065F0B5C066F0B6C067F00BEC20
:100E260019F00001D8A01AEF07F01CEF07F02BEF1E
:100E360007F0A1B121EF07F023EF07F02BEF07F042
:100E4600000EB36F000EB46F000EB56F000EB66FD6
:100E5600BAC060F0BBC061F0BCC062F0BDC063F058
:100E6600B3C064F0B4C065F0B5C066F0B6C067F054
:100E760014EC09F060C0AFF061C0B0F062C0B1F030
:100E860063C0B2F0AFC079F0B0C07AF0B1C07BF009
:100E9600B2C07CF0000E0001646F000E656F200E7C
:100EA600666F410E676FA9C060F0AAC061F0ABC063
:100EB60062F0ACC063F075EC0BF060C07DF061C011
:100EC6007EF062C07FF063C080F04AEC17F000014C
:100ED600D8A070EF07F072EF07F09AEF07F0A54B76
:100EE600A62BA9C060F0AAC061F0ABC062F0ACC08E
:100EF60063F0000E646F000E656F200E666F410E84
:100F0600676F75EC0BF060C0A9F061C0AAF062C013
:100F1600ABF063C0ACF0660E0001A019D8A496EF42
:100F260007F098EF07F09AEF07F0A34BA42BA9C0A0
:100F3600BEF0AAC0BFF0ABC0C0F0ACC0C1F0A5C047
:100F460096F0A6C097F0000E9E6F000E9B6F000EE7
:100F56009A6F000EAE6F000EAD6F98EF08F0AFC03F
:100F660060F0B0C061F0B1C062F0B2C063F0BEC064
:100F760064F0BFC065F0C0C066F0C1C067F0A0EC09
:100F86000FF060C079F061C07AF062C07BF063C098
:100F96007CF048EC14F079C0B3F07AC0B4F07BC0B2
:100FA600B5F07CC0B6F0B3C060F0B4C061F0B5C0B7
:100FB60062F0B6C063F0C6EC16F0000161BFEFEF59
:100FC60007F0615107E10A0E605DD8B0EDEF07F05A
:100FD600EFEF07F0FFEF07F0B3C060F0B4C061F0C9
:100FE600B5C062F0B6C063F0C6EC16F060C0A1F002
:100FF60061C0A2F003EF08F0000EA26F090EA16F08
:1010060000019E51D8A40AEF08F00CEF08F034EF67
:1010160008F097BF13EF08F011EF08F034EF08F06F
:10102600000EB825D96E010EB921DA6E2E0EDF6ECE
:10103600B84BB92BA707D8A0A807010E9E6F34EFAF
:1010460008F0000EB825D96E010EB921DA6E300E01
:10105600DF6EB84BB92BA707D8A0A8079A07D8A068
:101066009B079A519B11D8A43BEF08F03DEF08F07F
:1010760024EF08F0000EB825D96E010EB921DA6EFC
:10108600A151300FDF6EB84BB92BA707D8A0A80720
:10109600AFC079F0B0C07AF0B1C07BF0B2C07CF0DE
:1010A600B3C064F0B4C065F0B5C066F0B6C067F012
:1010B600BEC060F0BFC061F0C0C062F0C1C063F0E6
:1010C60075EC0BF060C07DF061C07EF062C07FF011
:1010D60063C080F09FEC1BF079C0AFF07AC0B0F02F
:1010E6007BC0B1F07CC0B2F0BEC060F0BFC061F0A2
:1010F600C0C062F0C1C063F0000E0001646F000E54
:10110600656F200E666F410E676FA0EC0FF060C032
:10111600BEF061C0BFF062C0C0F063C0C1F00001A4
:101126009607D8A09707AD4BAE2BA351AD5DAE5138
:10113600800A946FA451800A9459D8B0A5EF08F09C
:10114600A7EF08F0B5EF08F0B9BFB3EF08F0B95153
:1011560009E14B0EB85DD8A0B3EF08F0B5EF08F083
:10116600B2EF07F0000EAE6F4F0EAD6F000EAD255D
:10117600D96E010EAE21DA6E000EDF6E000E946F90
:10118600010E956FB851945FB951955BAD51942599
:10119600606FAE519521616F000E626F010E636F35
:1011A600B8C064F0B9C065F052EC1BF00001B8514C
:1011B600AD5DB86FB951AE59B96FB751D8A4E6EF66
:1011C60008F0E9EF08F0010EEAEF08F0000EAD6F47
:1011D600AE6BB751D8B4F2EF08F0F4EF08F0FFEFBA
:1011E60008F0B807D8A0B907000EB825D96E010EC9
:1011F600B921DA6EB7C0DFFFAD51A75FAE51A85B6C
:101206008DC070F08EC071F0000EB825726F010EA1
:10121600B921736FA7C074F0A8C075F0F9EC19F086
:10122600120000016351800B6C6F635163256E6F72
:1012360062AF20EF09F022EF09F023EF09F06E818B
:101246006E51D8B429EF09F02BEF09F040EF09F001
:101256006E29D8A431EF09F033EF09F03BEF09F01E
:10126600000E606F000E616F000E626F000E636FFE
:10127600628F000E636F48EF09F0000E606F000E7C
:10128600616F000E626F000E636F6751800B6D6FAA
:101296006C516D19D8B452EF09F054EF09F055EFBF
:1012A60009F06C8D675167256D6F66AF5DEF09F0CC
:1012B6005FEF09F060EF09F06D816D51D8B466EF0C
:1012C60009F068EF09F07DEF09F06D29D8A46EEFFB
:1012D60009F070EF09F078EF09F0000E646F000E68
:1012E600656F000E666F000E676F668F000E676F84
:1012F60085EF09F0000E646F000E656F000E666FD5
:10130600000E676F6E516D5DD8B08CEF09F08EEFF1
:1013160009F0B5EF09F06CAD93EF09F095EF09F020
:1013260097EF09F0800E6C1B6EC06FF06DC06EF00B
:101336006FC06DF060C06FF064C060F06FC064F0A5
:1013460061C06FF065C061F06FC065F062C06FF09C
:1013560066C062F06FC066F063C06FF067C063F08E
:101366006FC067F0000E6F6F6E516DC068F0696BED
:10137600685F000E695B69BFCAEF09F0695109E150
:101386001A0E685DD8A0CAEF09F0CCEF09F003EF9A
:101396000AF06051611162116311D8A4D5EF09F00A
:1013A600D8EF09F0010ED9EF09F0000E6F6F000EAD
:1013B600606F000E616F000E626F000E636F6DC08E
:1013C6006EF00CEF0AF06FA1EBEF09F0EDEF09F00C
:1013D600F3EF09F0D8906F3101096F6FF5EF09F05F
:1013E600D8906F3360A1FAEF09F0FCEF09F0FDEF3A
:1013F60009F06F8F633563336233613360336E2B6D
:101406006D516E5DD8A00AEF0AF00CEF0AF0E6EF18
:1014160009F06CBD11EF0AF013EF0AF053EF0AF072
:101426006E51D8A419EF0AF01BEF0AF025EF0AF067
:10143600000E606F000E616F000E626F000E636F2C
:1014460074EF0BF064516027655161236651622386
:101456006751632363A132EF0AF034EF0AF0E0EF3D
:101466000AF06FA139EF0AF03BEF0AF041EF0AF0FC
:10147600D8906F3101096F6F43EF0AF0D8906F3340
:1014860060A148EF0AF04AEF0AF04BEF0AF06F8FBF
:10149600633563336233613360336E2BE0EF0AF0FA
:1014A6006451605D65516159665162596351800AA4
:1014B600686F6751800A6859D8B064EF0AF066EF22
:1014C6000AF091EF0AF06051645D686F61516559E9
:1014D600696F625166596A6F635167596B6FFF0E88
:1014E6006825606FFF0E6921616FFF0E6A21626FCA
:1014F600FF0E6B21636F800E6C1B6F6D6F51D8A44E
:1015060087EF0AF089EF0AF099EF0AF0010E6027DB
:10151600000E61236223632399EF0AF06451605F32
:101526006551615B6651625B6751635B6051611136
:1015360062116311D8A4A2EF0AF0A4EF0AF0D9EF62
:101546000AF06F51D8A4AAEF0AF0ACEF0AF0D9EF6F
:101556000AF0000E606F000E616F000E626F000EE3
:10156600636F74EF0BF0D89060376137623763377B
:101576006FAFC0EF0AF0C2EF0AF0C3EF0AF0608166
:101586006FA1C8EF0AF0CAEF0AF0CEEF0AF0D880D2
:101596006F37D0EF0AF0D8906F376E51D8B4D6EFC8
:1015A6000AF0D8EF0AF0D9EF0AF06E0762AFDEEF65
:1015B6000AF0E0EF0AF0B6EF0AF0000E6D6F6FAFBB
:1015C600E7EF0AF0E9EF0AF001EF0BF06FC068F001
:1015D6007F0E6817D8B4F2EF0AF0F4EF0AF0F8EFCE
:1015E6000AF0010E6D6F01EF0BF060A1FDEF0AF03E
:1015F600FFEF0AF001EF0BF0F4EF0AF06D51D8B4EB
:1016060007EF0BF009EF0BF034EF0BF0010E60273C
:10161600000E61236223632363A114EF0BF016EF20
:101626000BF034EF0BF060C068F061C069F062C087
:101636006AF063C06BF06B356B336A3369336833BA
:1016460068C060F069C061F06AC062F06BC063F0A8
:101656006E29D8B431EF0BF033EF0BF034EF0BF00B
:101666006E2B6E29D8B43AEF0BF03CEF0BF044EF3B
:101676000BF06E51D8A442EF0BF044EF0BF056EF8F
:101686000BF0000E606F000E616F000E626F000EB1
:10169600636F6E51D8A452EF0BF054EF0BF056EF78
:1016A6000BF0000E6C6F6EA15BEF0BF05DEF0BF0B5
:1016B60060EF0BF0628F61EF0BF0629FD8906E3196
:1016C600636F6CAF69EF0BF06BEF0BF06CEF0BF029
:1016D600638F60C060F061C061F062C062F063C099
:1016E60063F0120000016351800B6C6F6351632538
:1016F600726F62AF81EF0BF083EF0BF084EF0BF0AC
:1017060072817251D8B48AEF0BF08CEF0BF09FEF19
:101716000BF07229D8A492EF0BF094EF0BF09CEF2C
:101726000BF0000E606F000E616F000E626F000E10
:10173600636F628FA7EF0BF0000E606F000E616F94
:10174600000E626F000E636F6751800B6C1B675152
:101756006725716F66AFB2EF0BF0B4EF0BF0B5EF24
:101766000BF071817151D8B4BBEF0BF0BDEF0BF0EC
:10177600D0EF0BF07129D8A4C3EF0BF0C5EF0BF037
:10178600CDEF0BF0000E646F000E656F000E666FF6
:10179600000E676F668FD8EF0BF0000E646F000EB9
:1017A600656F000E666F000E676F7151D8B4DEEF7D
:1017B6000BF0E0EF0BF0E8EF0BF07251D8A4E6EF78
:1017C6000BF0E8EF0BF0F2EF0BF0000E606F000E7F
:1017D600616F000E626F000E636F8AEF0DF0665147
:1017E6006003F3CF77F0F4CF78F077516D6F6E6BBF
:1017F6006F6B706B7851736F746B756B766B65512D
:101806006103F3CF77F0F4CF78F077516D27000EB0
:101816006E236F23702378517327000E742375236C
:10182600762364516203F3CF77F0F4CF78F07751E3
:101836006D27000E6E236F23702378517327000ED9
:101846007423752376236FC070F06EC06FF06DC081
:101856006EF06D6B64516103F3CF77F0F4CF78F0DF
:1018660077516D2778516E23000E6F23000E70237B
:1018760065516003F3CF77F0F4CF78F077516D2799
:1018860078516E23000E6F23000E70236FC070F028
:101896006EC06FF06DC06EF06D6B64516003F3CF78
:1018A60077F0F4CF78F077516D2778516E23000EDC
:1018B6006F23000E702366516103F3CF77F0F4CFE8
:1018C60078F07751732778517423000E7523000E34
:1018D600762365516203F3CF77F0F4CF78F0775132
:1018E600732778517423000E7523000E76236651F4
:1018F6006203F3CF77F0F4CF78F07751686F7851C1
:10190600696F6A6B6B6B6AC06BF069C06AF068C01E
:1019160069F0686B68517327695174236A5175239E
:101926006B5176236DC068F06EC069F06FC06AF0C7
:1019360070C06BF0190EA5EF0CF0D8906B336A33BC
:1019460069336833E82EA0EF0CF0685173276951AC
:1019560074236A5175236B5176236FC070F06EC085
:101966006FF06DC06EF06D6B715172C068F0696B8F
:101976006827000E6923820E6825776FFF0E69219E
:10198600786FDBEF0CF0D89073377437753776378E
:1019960070AFD0EF0CF0D2EF0CF0D3EF0CF07381F8
:1019A600D8906D376E376F3770377707D8A07807BE
:1019B60075AFE0EF0CF0E2EF0CF0C6EF0CF0000EA6
:1019C600716F70AFE9EF0CF0EBEF0CF00FEF0DF06D
:1019D600FF0E6D15686FFF0E6E15696FFF0E6F15A2
:1019E6006A6F7F0E70156B6F685169116A116B1102
:1019F600D8B400EF0DF002EF0DF006EF0DF0010E7A
:101A0600716F0FEF0DF073A10BEF0DF00DEF0DF0F1
:101A16000FEF0DF002EF0DF07151D8B415EF0DF088
:101A260017EF0DF03BEF0DF0010E7327000E742338
:101A36007523762376A122EF0DF024EF0DF03BEF10
:101A46000DF073C068F074C069F075C06AF076C0B6
:101A56006BF06B356B336A336933683368C073F088
:101A660069C074F06AC075F06BC076F0774B782B5E
:101A760078BF46EF0DF0785108E17729D8A046EFF8
:101A86000DF048EF0DF052EF0DF0000E736F000EE3
:101A9600746F800E756F7F0E766F80EF0DF078BFD6
:101AA6005FEF0DF0785106E17705D8B05DEF0DF0E8
:101AB6005FEF0DF06BEF0DF0000E736F000E746F9D
:101AC600000E756F000E766F000E6C6F80EF0DF0D6
:101AD60077C072F0FF0E7317FF0E74177F0E75171F
:101AE600000E761772A17AEF0DF07CEF0DF07DEF08
:101AF6000DF0758FD8907231766F6C51761373C076
:101B060060F074C061F075C062F076C063F01200D8
:101B16001250800B1B6E12501224216E11AE96EFDE
:101B26000DF098EF0DF099EF0DF021802150D8B40B
:101B36009FEF0DF0A1EF0DF0B4EF0DF02128D8A422
:101B4600A7EF0DF0A9EF0DF0B1EF0DF0000E0F6E3F
:101B5600000E106E000E116E000E126E118EBCEF8E
:101B66000DF0000E0F6E000E106E000E116E000EC0
:101B7600126E1650800B1B1A16501624206E15AEC8
:101B8600C7EF0DF0C9EF0DF0CAEF0DF02080205021
:101B9600D8B4D0EF0DF0D2EF0DF0E5EF0DF0202820
:101BA600D8A4D8EF0DF0DAEF0DF0E2EF0DF0000E4D
:101BB600136E000E146E000E156E000E166E158E48
:101BC600EDEF0DF0000E136E000E146E000E156E86
:101BD600000E166E2050D8B4F3EF0DF0F5EF0DF0B1
:101BE600FDEF0DF02150D8A4FBEF0DF0FDEF0DF049
:101BF60007EF0EF0000E0F6E000E106E000E116E47
:101C0600000E126E9FEF0FF015500F02F3CF26F065
:101C1600F4CF27F026501C6E1D6A1E6A1F6A2750D5
:101C2600226E236A246A256A14501002F3CF26F026
:101C3600F4CF27F026501C26000E1D221E221F223E
:101C460027502226000E2322242225221350110279
:101C5600F3CF26F0F4CF27F026501C26000E1D22C7
:101C66001E221F2227502226000E2322242225224E
:101C76001EC01FF01DC01EF01CC01DF01C6A1350B4
:101C86001002F3CF26F0F4CF27F026501C2627505B
:101C96001D22000E1E22000E1F2214500F02F3CF2B
:101CA60026F0F4CF27F026501C2627501D22000EC2
:101CB6001E22000E1F221EC01FF01DC01EF01CC0DB
:101CC6001DF01C6A13500F02F3CF26F0F4CF27F055
:101CD60026501C2627501D22000E1E22000E1F22F3
:101CE60015501002F3CF26F0F4CF27F02650222607
:101CF60027502322000E2422000E25221450110202
:101D0600F3CF26F0F4CF27F02650222627502322A1
:101D1600000E2422000E252215501102F3CF26F0C4
:101D2600F4CF27F02650176E2750186E196A1A6AD4
:101D360019C01AF018C019F017C018F0176A175012
:101D4600222618502322195024221A5025221CC05C
:101D560017F01DC018F01EC019F01FC01AF0190E9A
:101D6600BAEF0EF0D8901A32193218321732E82E1E
:101D7600B5EF0EF0175022261850232219502422B0
:101D86001A5025221EC01FF01DC01EF01CC01DF0DB
:101D96001C6A205021C017F0186A1726000E182258
:101DA600820E1724266EFF0E1820276EF0EF0EF017
:101DB600D89022362336243625361FAEE5EF0EF0B0
:101DC600E7EF0EF0E8EF0EF02280D8901C361D36B5
:101DD6001E361F362606D8A0270624AEF5EF0EF0CF
:101DE600F7EF0EF0DBEF0EF0000E206E1FAEFEEFEB
:101DF6000EF000EF0FF024EF0FF0FF0E1C14176E1D
:101E0600FF0E1D14186EFF0E1E14196E7F0E1F1482
:101E16001A6E1750181019101A10D8B415EF0FF0C3
:101E260017EF0FF01BEF0FF0010E206E24EF0FF0EF
:101E360022A020EF0FF022EF0FF024EF0FF017EFA4
:101E46000FF02050D8B42AEF0FF02CEF0FF050EF20
:101E56000FF0010E2226000E23222422252225A081
:101E660037EF0FF039EF0FF050EF0FF022C017F0F9
:101E760023C018F024C019F025C01AF01A341A32FB
:101E860019321832173217C022F018C023F019C0C1
:101E960024F01AC025F0264A272A27BE5BEF0FF04A
:101EA600275008E12628D8A05BEF0FF05DEF0FF072
:101EB60067EF0FF0000E226E000E236E800E246E6A
:101EC6007F0E256E95EF0FF027BE74EF0FF02750AB
:101ED60006E12604D8B072EF0FF074EF0FF080EF32
:101EE6000FF0000E226E000E236E000E246E000E02
:101EF600256E000E1B6E95EF0FF026C021F0FF0E2B
:101F06002216FF0E23167F0E2416000E251621A07C
:101F16008FEF0FF091EF0FF092EF0FF0248ED89025
:101F26002130256E1B50251222C00FF023C010F061
:101F360024C011F025C012F0120000016351800B7D
:101F4600706F63516325776F62AFACEF0FF0AEEF42
:101F56000FF0AFEF0FF077817751D8B4B5EF0FF0F0
:101F6600B7EF0FF0CCEF0FF07729D8A4BDEF0FF045
:101F7600BFEF0FF0C7EF0FF0000E606F000E616F3E
:101F8600000E626F000E636F628F000E636FD4EFF8
:101F96000FF0000E606F000E616F000E626F000E94
:101FA600636F6751800B701B67516725786F66AF4B
:101FB600DFEF0FF0E1EF0FF0E2EF0FF078817851ED
:101FC600D8B4E8EF0FF0EAEF0FF0FFEF0FF0782943
:101FD600D8A4F0EF0FF0F2EF0FF0FAEF0FF0000ECB
:101FE600646F000E656F000E666F000E676F668F7A
:101FF600000E676F07EF10F0000E646F000E656F3E
:10200600000E666F000E676F6451651166116711E9
:10201600D8A410EF10F012EF10F02AEF10F0000E17
:10202600606F000E616F000E626F000E636F800EB0
:1020360062137F0E63137051631360C060F061C05A
:1020460061F062C062F063C063F06DEF11F077512A
:10205600D8A430EF10F032EF10F03CEF10F0000E85
:10206600606F000E616F000E626F000E636F6DEFA2
:1020760011F0785177C068F0696B685F000E695B94
:102086007F0E6825716F000E6921726F60C06CF05B
:1020960061C06DF062C06EF063C06FF0000E606FDD
:1020A600000E616F000E626F000E636F000E736F9D
:1020B600000E746F000E756F000E766F000E786F4F
:1020C6009DEF10F07851D8B46BEF10F06DEF10F073
:1020D60084EF10F0D8906C376D376E376F37D89025
:1020E600603761376237633776AF7CEF10F07EEF8B
:1020F60010F07FEF10F06081D89073377437753722
:10210600763764516C5D65516D5966516E596751EC
:102116006F59D8A091EF10F093EF10F09CEF10F0EC
:10212600768D64516C5F65516D5B66516E5B675170
:102136006F5B782B190E7865A3EF10F0A5EF10F002
:1021460065EF10F06C516D116E116F11D8B4AEEFD2
:1021560010F0B0EF10F0C8EF10F07381C8EF10F078
:10216600D890603761376237633776AFBDEF10F0CE
:10217600BFEF10F0C0EF10F06081D890733774375E
:10218600753776377107D8A0720762AFCDEF10F0BA
:10219600CFEF10F0B3EF10F0000E786F76AFD6EFFA
:1021A60010F0D8EF10F0FCEF10F0FF0E7315686F0B
:1021B600FF0E7415696FFF0E75156A6F7F0E761523
:1021C6006B6F685169116A116B11D8B4EDEF10F09D
:1021D600EFEF10F0F3EF10F0010E786FFCEF10F058
:1021E60060A1F8EF10F0FAEF10F0FCEF10F0EFEF4F
:1021F60010F07851D8B402EF11F004EF11F028EF87
:1022060011F0010E6027000E61236223632363A190
:102216000FEF11F011EF11F028EF11F060C068F028
:1022260061C069F062C06AF063C06BF06B356B33F6
:102236006A336933683368C060F069C061F06AC0A8
:1022460062F06BC063F0714B722B72BF33EF11F00B
:10225600725108E17129D8A033EF11F035EF11F072
:1022660040EF11F0000E726F7169000E606F000E84
:10227600616F000E626F000E636F72BF4DEF11F05B
:10228600725106E17105D8B04BEF11F04DEF11F028
:102296005BEF11F0000E726F000E716F000E606F33
:1022A600000E616F000E626F000E636F000E706F9E
:1022B60071C077F077A162EF11F064EF11F067EF6C
:1022C60011F0628F68EF11F0629FD8907731636FDB
:1022D6001EEF10F012002B50800B386E2B502B2463
:1022E6003F6E2AAE79EF11F07BEF11F07CEF11F023
:1022F6003F803F50D8B482EF11F084EF11F099EF90
:1023060011F03F28D8A48AEF11F08CEF11F094EF6A
:1023160011F0000E286E000E296E000E2A6E000EB9
:102326002B6E2A8E000E2B6EA1EF11F0000E286E7A
:10233600000E296E000E2A6E000E2B6E2F50800B9B
:10234600381A2F502F24406E2EAEACEF11F0AEEFA0
:1023560011F0AFEF11F040804050D8B4B5EF11F056
:10236600B7EF11F0CCEF11F04028D8A4BDEF11F073
:10237600BFEF11F0C7EF11F0000E2C6E000E2D6EA0
:10238600000E2E6E000E2F6E2E8E000E2F6ED4EFC8
:1023960011F0000E2C6E000E2D6E000E2E6E000E2D
:1023A6002F6E2C502D102E102F10D8A4DDEF11F00B
:1023B600DFEF11F0F7EF11F0000E286E000E296E18
:1023C600000E2A6E000E2B6E800E2A127F0E2B1226
:1023D60038502B1228C028F029C029F02AC02AF02C
:1023E6002BC02BF03AEF13F03F50D8A4FDEF11F0BD
:1023F600FFEF11F009EF12F0000E286E000E296EA5
:10240600000E2A6E000E2B6E3AEF13F040503FC0BE
:1024160030F0316A305E000E315A7F0E3024396E4C
:10242600000E31203A6E28C034F029C035F02AC09B
:1024360036F02BC037F0000E286E000E296E000E07
:102446002A6E000E2B6E000E3B6E000E3C6E000ECA
:102456003D6E000E3E6E000E406E6AEF12F040506A
:10246600D8B438EF12F03AEF12F051EF12F0D890DC
:102476003436353636363736D890283629362A3623
:102486002B363EAE49EF12F04BEF12F04CEF12F046
:102496002880D8903B363C363D363E362C50345C50
:1024A6002D5035582E5036582F503758D8A05EEF3D
:1024B60012F060EF12F069EF12F03E8C2C50345E91
:1024C6002D50355A2E50365A2F50375A402A190E4B
:1024D600406470EF12F072EF12F032EF12F03450E7
:1024E600351036103710D8B47BEF12F07DEF12F0AE
:1024F60095EF12F03B8095EF12F0D89028362936EA
:102506002A362B363EAE8AEF12F08CEF12F08DEFA4
:1025160012F02880D8903B363C363D363E3639069A
:10252600D8A03A062AAE9AEF12F09CEF12F080EF8E
:1025360012F0000E406E3EAEA3EF12F0A5EF12F0C1
:10254600C9EF12F0FF0E3B14306EFF0E3C14316ED5
:10255600FF0E3D14326E7F0E3E14336E3050311036
:1025660032103310D8B4BAEF12F0BCEF12F0C0EF4D
:1025760012F0010E406EC9EF12F028A0C5EF12F05E
:10258600C7EF12F0C9EF12F0BCEF12F04050D8B40A
:10259600CFEF12F0D1EF12F0F5EF12F0010E282670
:1025A600000E29222A222B222BA0DCEF12F0DEEFCE
:1025B60012F0F5EF12F028C030F029C031F02AC031
:1025C60032F02BC033F033343332323231323032E0
:1025D60030C028F031C029F032C02AF033C02BF0C9
:1025E600394A3A2A3ABE00EF13F03A5008E1392840
:1025F600D8A000EF13F002EF13F00DEF13F0000E6A
:102606003A6E3968000E286E000E296E000E2A6E8C
:10261600000E2B6E3ABE1AEF13F03A5006E139045B
:10262600D8B018EF13F01AEF13F028EF13F0000EDE
:102636003A6E000E396E000E286E000E296E000EE0
:102646002A6E000E2B6E000E386E39C03FF03FA08A
:102656002FEF13F031EF13F034EF13F02A8E35EF2E
:1026660013F02A9ED8903F302B6EEBEF11F012003C
:10267600C4C0D9FFC5C0DAFFDECFF6FFDDCFF7FF56
:102686000800F550250AD8A44BEF13F04DEF13F0D0
:1026960032EF14F0C4C0D9FFC5C0DAFFDE2A000E3F
:1026A600DD22000E0001FB6F000EFA6FFAC0FEF08D
:1026B600FC69FD69C4C0D9FFC5C0DAFFDECFD3F01F
:1026C600DDCFD4F0D3C0F6FFD4C0F7FF0800F5CFB6
:1026D600D2F07AEF13F0D34BD42B93EF13F06C0EAA
:1026E600D26F93EF13F0000ED26F93EF13F0D25127
:1026F600C86FC96BC951000AD8B484EF13F076EFDE
:1027060013F0C8514C0AD8B46EEF13F02A0AD8B4A5
:1027160072EF13F00A0AD8B46EEF13F076EF13F0E7
:10272600D3C0F6FFD4C0F7FF0800F550660AD8A458
:102736009FEF13F0A1EF13F029EF14F0D7EF13F08A
:10274600C6C0D9FFC7C0DAFFDFCFC8F0040EDE2649
:10275600DFCFC9F0000EDD22C8C0D9FFC9C0DAFF3D
:10276600DECFCAF0DECFCBF0DECFCCF0DECFCDF0C1
:10277600ECEF13F0C6C0D9FFC7C0DAFFDFCFC8F051
:10278600040EDE26DFCFC9F0000EDD22C8C0D9FF59
:10279600C9C0DAFFDECFCAF0DECFCBF0DECFCCF099
:1027A600DECFCDF0ECEF13F0D251C86FC96BC95133
:1027B600000AD8B4E1EF13F0ECEF13F0C8514C0A5D
:1027C600D8B4BDEF13F0200AD8B4A3EF13F0ECEFA2
:1027D60013F0010ED325C86F000ED421C96FC4C0F3
:1027E600D9FFC5C0DAFFC8C0DEFFC9C0DDFF13EFE1
:1027F60014F0C2C08DF0C3C08EF0CAC08FF0CBC03B
:1028060090F0CCC091F0CDC092F0D3C0F6FFD4C00A
:10281600F7FF0800F5CF93F013EC04F047EF14F040
:10282600D3C0F6FFD4C0F7FF0800F550C86FC96BD8
:10283600C951000AD8B422EF14F029EF14F0C85198
:10284600660AD8B4FCEF13F029EF14F0C4C0D9FF20
:10285600C5C0DAFFDE2A000EDD2247EF14F0C4C041
:10286600D9FFC5C0DAFFDECFF6FFDDCFF7FF0800E0
:10287600F5500001606F616BC2C062F0C3C063F0C7
:102886004DEC18F029EF14F0120059C089F05AC027
:102896008AF05BC08BF05CC08CF079C089F07AC09E
:1028A6008AF07BC08BF07CC08CF0810E00017D6FBE
:1028B600FF0E7E6F89C07FF08AC080F08BC081F0EA
:1028C6008CC082F0180E6DEF14F0D89082338133ED
:1028D60080337F33E82E68EF14F07F517D25876FB4
:1028E600000E7E21886F88BF82EF14F0885109E1BF
:1028F600170E875DD8A082EF14F084EF14F08EEFE8
:1029060014F079C079F07AC07AF07BC07BF07CC095
:102916007CF052EF15F088BF93EF14F095EF14F0AA
:1029260006EF15F087C07DF0FF0E7E6FFF0E7F6FFE
:102936007F0E806F000E816F7D67A4EF14F0ACEF01
:1029460014F08135813380337F337E337D2F9FEFC3
:1029560014F07EC083F07FC084F080C085F081C013
:1029660086F00001835189157D6F84518A157E6F2B
:1029760085518B157F6F86518C15806F7D517E1129
:102986007F118011D8A4CAEF14F0CCEF14F0CEEF6B
:1029960014F084EF14F089C07DF08AC07EF08BC0FD
:1029A6007FF08CC080F0200EDEEF14F0D8908033DC
:1029B6007F337E337D33E82ED9EF14F07D517E11BF
:1029C6007F118011D8B4EAEF14F0ECEF14F0F4EFB5
:1029D60014F08351892784518A2385518B2386518C
:1029E6008C23831D7D6F841D7E6F851D7F6F861DE5
:1029F600806F7D5189177E518A177F518B178051C1
:102A06008C174AEF15F089C07DF08AC07EF08BC026
:102A16007FF08CC080F0200E16EF15F0D890803332
:102A26007F337E337D33E82E11EF15F07D517E1115
:102A36007F118011D8A422EF15F024EF15F02EEFA8
:102A460015F0000E896F000E8A6F000E8B6F000E58
:102A56008C6F4AEF15F0D89089357D6F8A357E6F79
:102A66008B357F6F8C35806F7D517E117F11801184
:102A7600D8B440EF15F042EF15F04AEF15F0000E0E
:102A8600896F000E8A6F800E8B6FBF0E8C6F89C0A8
:102A960079F08AC07AF08BC07BF08CC07CF0120093
:102AA600096E0950D8B45AEF15F05CEF15F07EEFB9
:102AB60015F004BE63EF15F061EF15F07EEF15F02B
:102AC60001C005F002C006F003C007F004C008F01C
:102AD600051E061E071E081E052A000E06220722D0
:102AE600082205C00BF006C00CF007C00DF008C0A8
:102AF6000EF086EF15F001C00BF002C00CF003C01B
:102B06000DF004C00EF00150021003100410D8A4FA
:102B16008FEF15F091EF15F09BEF15F0000E016E9B
:102B2600000E026E000E036E000E046E2CEF16F001
:102B3600960E0A6EA5EF15F00A2AD8900E320D32BF
:102B46000C320B32000E0B14056E000E0C14066EC2
:102B5600000E0D14076EFE0E0E14086E05500610BC
:102B660007100810D8A4BAEF15F0BCEF15F09FEFC8
:102B760015F0CAEF15F00A2A010E0B26000E0C22DC
:102B86000D220E22D8900E320D320C320B32000E70
:102B96000B14056E000E0C14066E000E0D14076E57
:102BA600FF0E0E14086E0550061007100810D8A464
:102BB600DFEF15F0E1EF15F0BEEF15F0E9EF15F0D8
:102BC6000A06D8900B360C360D360E360DBEEEEFD5
:102BD60015F0F0EF15F0F8EF15F0020E0A60F6EFBB
:102BE60015F0F8EF15F0E3EF15F00AB0FDEF15F06C
:102BF600FFEF15F000EF16F00D9ED8900A320AC0CE
:102C060005F0066A076A086A05C008F0076A066AD8
:102C1600056A05500B1206500C1207500D1208508B
:102C26000E120950D8B41AEF16F01CEF16F024EF66
:102C360016F004BE23EF16F021EF16F024EF16F07F
:102C46000E8E0BC001F00CC002F00DC003F00EC0DA
:102C560004F012000001626F9598959A959C959ED6
:102C66008C988C9A8C9C8C9E8C92210EE82EFED78A
:102C760000F062C060F00001603B0F0E6017010EAD
:102C86006017603B8C506019EF0B60198C6E62C048
:102C960060F0050E616FD8906033612F4EEF16F02D
:102CA600010E6017603B60478C506019DF0B60199E
:102CB6008C6E62C060F0060E616FD8906033612F33
:102CC60060EF16F0010E6017603B604760478C505E
:102CD6006019BF0B60198C6E606B62AF01D0602B00
:102CE600010E6017603360338C5060197F0B6019DA
:102CF6008C6E8C82210EE82EFED700F08C9262C07C
:102D060060F0010E00016017603B8C506019EF0BFC
:102D160060198C6E62C060F0D8906033070E601741
:102D2600603B60478C506019DF0B60198C6E62C087
:102D360060F0D8906033D8906033030E6017603B24
:102D4600604760478C506019BF0B60198C6E62C07B
:102D560060F0D8906033D8906033D8906033010E1D
:102D66006017603360338C5060197F0B60198C6E6E
:102D76008C82210EE82EFED700F08C929588958ADB
:102D8600958C958E1200000162356335696F695125
:102D9600D8A4D0EF16F0D2EF16F0DCEF16F0000E46
:102DA600606F000E616F000E626F000E636F49EF79
:102DB60017F060C064F061C065F062C066F063C081
:102DC60067F0200EECEF16F0D89067336633653364
:102DD6006433E82EE7EF16F06451686F628FFF0EDA
:102DE6006017FF0E6117FF0E6217000E6317960E2F
:102DF600695F69BF03EF17F001EF17F019EF17F0DE
:102E06006951800A970FD8B00BEF17F00DEF17F046
:102E16000FEF17F0D2EF16F0D890633362336133B9
:102E26006033693F0FEF17F031EF17F01F0E69653A
:102E36001FEF17F021EF17F029EF17F0D2EF16F07A
:102E4600D890603761376237633769076951D8A40C
:102E56002FEF17F031EF17F023EF17F06851D8B4C2
:102E660037EF17F039EF17F041EF17F0631F621FC6
:102E7600611F606D000E61236223632360C060F0F2
:102E860061C061F062C062F063C063F01200000EC0
:102E960000017915816F000E7A15826F800E7B1501
:102EA600836F7F0E7C15846F81518211831184118B
:102EB600D8A460EF17F062EF17F06AEF17F0000E74
:102EC600796F000E7A6F000E7B6F000E7C6F000E1E
:102ED6007D15816F000E7E15826F800E7F15836FC4
:102EE6007F0E8015846F8151821183118411D8A4BD
:102EF6007FEF17F081EF17F089EF17F0000E7D6F67
:102F0600000E7E6F000E7F6F000E806F7CAF8EEF1F
:102F160017F090EF17F099EF17F0796D7A1FD8B088
:102F26007A2B7B1FD8B07B2B800E7C5780AF9EEF11
:102F360017F0A0EF17F0A9EF17F07D6D7E1FD8B040
:102F46007E2B7F1FD8B07F2B800E8057000E791BFB
:102F5600000E7A1B000E7B1B800E7C1B000E7D1B59
:102F6600000E7E1B000E7F1B800E801B7D51795D3F
:102F76007E517A597F517B5980517C59D8B0C6EF22
:102F860017F0C8EF17F0CBEF17F0D890CCEF17F08B
:102F9600D8801200F2C06AF0F3C06BF0F4C06CF097
:102FA600F5C06DF060C06AF061C06BF062C06CF095
:102FB60063C06DF06AC064F06BC065F06CC066F00B
:102FC6006DC067F0180EEEEF17F00001D89067336A
:102FD600663365336433E82EE8EF17F06451686FA3
:102FE600696B68516911D8A4FBEF17F0FDEF17F074
:102FF6001DEF18F0D8906A35646F6B35656F6C35C8
:10300600666F6D35676F6451651166116711D8A4D7
:103016000FEF18F011EF18F017EF18F0000E616FB0
:10302600020E606F4CEF18F0000E616F030E606FBA
:103036004CEF18F068296911D8A424EF18F026EF90
:1030460018F048EF18F06AC064F06BC065F06CC009
:1030560066F06DC067F0090ED8906437653766373D
:103066006737E82E2FEF18F0645165116611671166
:10307600D8B440EF18F043EF18F0010E44EF18F003
:10308600000E606F616B4CEF18F0000E616F040E5E
:10309600606F1200000162516311D8B455EF18F049
:1030A60057EF18F060EF18F062516311D8A45EEF85
:1030B60018F060EF18F065EF18F0605132EC1CF074
:1030C600B2EF18F020EE09F06251D9266351DA22E8
:1030D600DE50DE10D8B472EF18F074EF18F08FEFF0
:1030E60018F020EE09F06251D9266351DA2210EE6B
:1030F60003F06251E1266351E222DE50E65CE650BF
:10310600800A686FDE50800A6859D8B08DEF18F0D3
:103116008FEF18F0B2EF18F020EE03F06251D926C7
:103126006351DA22DECF64F0DDCF65F062C0D9FFED
:1031360063C0DAFFDECF66F0DDCF67F06451662547
:10314600D96E65516721DA6E60C0DFFF20EE03F0AD
:103156006251D9266351DA22DE2A000EDD221200E0
:10316600959095929598959A959C959E8C90140E0F
:103176000001636F790EE82EFED7632FFCD700D0CF
:10318600300E2DEC16F0070E0001636F7D0EE82E53
:10319600FED7632FFCD7300E2DEC16F0210EE82E4D
:1031A600FED700F0320E2DEC16F0210EE82EFED7DB
:1031B60000F0210EE82EFED700F02B0E2DEC16F0B7
:1031C600210EE82EFED700F0080E2DEC16F0210E8B
:1031D600E82EFED700F00F0E2DEC16F0210EE82E8D
:1031E600FED700F0010E2DEC16F0210EE82EFED7CC
:1031F60000F0060E2DEC16F0210EE82EFED700F09C
:103206000F0E2DEC16F0210EE82EFED700F0120060
:10321600000E00016015686F000E6115696F800E63
:1032260062156A6F7F0E63156B6F685169116A11BB
:103236006B11D8A421EF19F023EF19F02BEF19F039
:10324600000E606F000E616F000E626F000E636FFE
:10325600000E6415686F000E6515696F800E6615A1
:103266006A6F7F0E67156B6F685169116A116B1172
:10327600D8A440EF19F042EF19F04AEF19F0000E0A
:10328600646F000E656F000E666F000E676F645107
:1032960060190FE1655161190CE16651621909E186
:1032A60067516319D8B45AEF19F05CEF19F05FEF64
:1032B60019F0D89060EF19F0D88012000600F3CF0D
:1032C60043F0F4CF44F0BE50BFCF41F0426A41C054
:1032D60042F0416A41105D6E42505E6E000ECF6E46
:1032E600000ECE6EBD0E136E370E146E060E156EE4
:1032F600370E166E5DC001F05EC002F0000E02BE13
:10330600FF0E036E046E010E53EC15F001C00FF0B4
:1033160002C010F003C011F004C012F08BEC0DF0E7
:103326000FC028F010C029F011C02AF012C02BF0EF
:10333600000E2C6E000E2D6E800E2E6E400E2F6E21
:103346006EEC11F028C0F6F029C0F7F02AC0F8F0AC
:103356002BC0F9F09E9444C0F4FF43C0F3FF5F9284
:1033660011000001676FD0EF19F064517F0F14EC64
:103376001CF0EEEF19F06451BF0F14EC1CF0EEEFE9
:1033860019F06451930F14EC1CF0EEEF19F0645130
:10339600D30F14EC1CF0EEEF19F000016751656FC6
:1033A600666B6651000AD8B4DBEF19F0EEEF19F040
:1033B6006551010AD8B4B8EF19F0030AD8B4BEEFC4
:1033C60019F0010AD8B4C4EF19F0070AD8B4CAEF45
:1033D60019F0EEEF19F0820E0001656FDD0EE82E92
:1033E600FED7652FFCD700D08C901200000175BF68
:1033F600FFEF19F001EF1AF007EF1AF074C079F039
:1034060075C07AF00BEF1AF0000E7A6F000E796F26
:10341600000E786F000E776F1EEF1AF0000E616FC8
:10342600200E606F70C062F071C063F04DEC18F052
:103436000001774B782B7951775D7851800A766F4A
:103446007A51800A7659D8A02BEF1AF02DEF1AF090
:1034560011EF1AF072C069F073C06AF070C06BF0B9
:1034660071C06CF07BEC1BF0120000016B6F68C042
:1034760064F000016B51B4EC19F057EF1AF069C013
:10348600F6FF6AC0F7FFF86A070EF76403D0080074
:10349600F55005D0F6CFE1FFF7CFE2FFE7501DEC80
:1034A6001CF00001694B6A2B69C0F6FF6AC0F7FF82
:1034B600F86A070EF76403D00800F55005D0F6CF7A
:1034C600E1FFF7CFE2FFE7500009D8A46DEF1AF04D
:1034D6006FEF1AF042EF1AF01200000163BF80EF9F
:1034E6001AF063516211611106E16005D8B07EEFF2
:1034F6001AF080EF1AF09BEF1AF060C064F061C01A
:1035060065F062C066F063C067F0641F651F661FE2
:10351600671F642B000E65236623672364C060F073
:1035260065C061F066C062F067C063F0A3EF1AF091
:1035360060C060F061C061F062C062F063C063F0B9
:1035460012000F0EC16E946826EC1CF00BEC1CF0FA
:103556002BEC1CF030EC1CF030EC1CF0B3EC18F04B
:103566000C0E14EC1CF0450E0001DD6F000EDE6F34
:10357600160EDF6F080EE06FF6C0E1F0F7C0E2F05E
:10358600F8C0E3F0F9C0E4F000EC1BF0010E000116
:10359600686F450E696F000E6A6F020E38EC1AF0FE
:1035A600B6EF1AF007EF00F0020EF66E380EF76E61
:1035B600000EF86E00EE45F010EE14F00900F5CF9F
:1035C600EEFFE550E150FAE101EE00F0500EEE6A32
:1035D600E806FDE100EEF2F00D0EEE6AE806FDE10A
:1035E6005E6A5D6A5C6A5B6A5A6A596A5F905F9254
:1035F600000EF86E0001A4EF1AF0E10E0001E56F6F
:10360600000EE66FDDC0E7F0DEC0E8F0000EEB6FFF
:10361600000EEA6F000EF16F000EF06FE70ED56F29
:10362600000ED66FDFC0D7F0E0C0D8F0E50ED96F38
:10363600000EDA6F29EC1BF00001EA51DD25D96E88
:10364600EB51DE21DA6E000EDF6E1200D7C0DBF022
:10365600D8C0DCF03EEF1BF0D5C0C2F0D6C0C3F038
:10366600DB0E0001C46F000EC56FD9C0C6F0DAC00C
:10367600C7F03BEC13F0DBC0F6FFDCC0F7FF080039
:10368600F5500009D8A44AEF1BF04CEF1BF02FEFC2
:103696001BF0000E0001D66F000ED56F120062C03F
:1036A60068F063C069F060C066F061C067F06CEFF7
:1036B6001BF068C0D9FF69C0DAFFDF506A6F684B3C
:1036C600692B66C0D9FF67C0DAFF6AC0DFFF664BA9
:1036D600672B00016407D8A06507642906E1652900
:1036E600D8A478EF1BF07AEF1BF05CEF1BF012000A
:1036F600000E00016F6F000E6E6F8EEF1BF06DC037
:1037060060F0616B6BC062F06CC063F04DEC18F05A
:1037160000016E4B6F2B6E516925D96E6F516A2170
:10372600DA6EDF506D6F6D51D8A49CEF1BF09EEFE3
:103736001BF082EF1BF01200000E00017D1B000E35
:103746007E1B000E7F1B800E801B79C060F07AC046
:1037560061F07BC062F07CC063F07DC064F07EC027
:1037660065F07FC066F080C067F014EC09F060C0B9
:1037760079F061C07AF062C07BF063C07CF0120021
:1037860062C064F063C065F060C066F061C067F057
:1037960064C0F6FF65C0F7FF0001644B652B66C089
:1037A600D9FF67C0DAFF664B672B0800F5CFDFFF4E
:1037B600DF50D8A4E1EF1BF0E3EF1BF0CBEF1BF0DB
:1037C600120000016051611162116311D8B4EEEF6D
:1037D6001BF0F0EF1BF0F8EF1BF0000E601B000E65
:1037E600611B000E621B800E631B60C060F061C02F
:1037F60061F062C062F063C063F012002000000056
:1038060000000000000000000000000000000000B2
:10381600300ECD12CD92CD8E000ECF6E000ECE6E36
:1038260012000001636F8C90000163512DEC16F0BD
:103836008C9012000001636F8C80000163512DECA7
:1038460016F08C901200F28EF28C9E949D841200DB
:10385600BD50F00B0609BD6E1200CD80120012009D
:020000040020DA
:08000000FFFFFFFFFFFFFFFF00
:020000040030CA
:0E0000000000181EFF0181FF0FC00FE00F402F
:00000001FF
