:040000006BEF3FF073
:107ED600000EF86E000170EF3FF00F0EC16E926853
:107EE600000E936E000E956E9668000E076E000EDD
:107EF600066E06509CEC3FF0836E410E056EEE0E4C
:107F0600E82EFED7052EFCD700D0064A072A07BE64
:107F160096EF3FF0075009E10A0E065CD8A096EFEF
:107F26003FF098EF3FF07CEF3FF078EF3FF000EF47
:107F360000F0036E000E046EC9EF3FF03F0E046EB4
:107F4600FEEF3FF0060E046EFEEF3FF05B0E046E92
:107F5600FEEF3FF04F0E046EFEEF3FF0660E046E2E
:107F6600FEEF3FF06D0E046EFEEF3FF07D0E046EE9
:107F7600FEEF3FF0070E046EFEEF3FF07F0E046E3D
:107F8600FEEF3FF06F0E046EFEEF3FF00350016E02
:107F9600026A0250000AD8B4D3EF3FF0FEEF3FF07A
:107FA6000150000AD8B4A1EF3FF0010AD8B4A5EFFA
:107FB6003FF0030AD8B4A9EF3FF0010AD8B4ADEFF9
:107FC6003FF0070AD8B4B1EF3FF0010AD8B4B5EFD5
:107FD6003FF0030AD8B4B9EF3FF0010AD8B4BDEFB9
:107FE6003FF00F0AD8B4C1EF3FF0010AD8B4C5EF8D
:0A7FF6003FF0FEEF3FF004501200D0
:020000040020DA
:08000000FFFFFFFFFFFFFFFF00
:020000040030CA
:0E0000000008191EFF0085FF0FC00FE00F4023
:00000001FF
