:0400000054EF3FF08A
:107EA800026A016A000EF86E00015BEF3FF0000EF7
:107EB800926E070E936E000E956E000E8C6E3F0E3E
:107EC800896E8FEF3FF03F0E896EC5EF3FF0060ECB
:107ED800896EC5EF3FF05B0E896EC5EF3FF04F0E20
:107EE800896EC5EF3FF0660E896EC5EF3FF06D0EE7
:107EF800896EC5EF3FF07D0E896EC5EF3FF0070E26
:107F0800896EC5EF3FF07F0E896EC5EF3FF06F0EAB
:107F1800896EC5EF3FF001C003F002C004F00450C1
:107F2800000AD8B49AEF3FF067EF3FF00350000A19
:107F3800D8B467EF3FF0010AD8B46BEF3FF0030AFB
:107F4800D8B46FEF3FF0010AD8B473EF3FF0070AD7
:107F5800D8B477EF3FF0010AD8B47BEF3FF0030ABB
:107F6800D8B47FEF3FF0010AD8B483EF3FF00F0A8F
:107F7800D8B487EF3FF0010AD8B48BEF3FF067EF32
:107F88003FF0014A022A0A0E01180210D8A4CFEFC6
:107F98003FF0D1EF3FF0D5EF3FF0000E026E000E3C
:107FA800016E8104D8A4DBEF3FF0DDEF3FF0DFEF97
:107FB8003FF0F00E8C6E020E8118D8A4E6EF3FF069
:107FC800E8EF3FF0EAEF3FF00F0E8C6E040E8118D9
:107FD800D8A4F1EF3FF0F3EF3FF0F5EF3FF03F0E9D
:107FE8008C6E820E036EDE0EE82EFED7032EFCD7B3
:087FF8008FEF3FF000EF00F0F5
:020000040020DA
:08000000FFFFFFFFFFFFFFFF00
:020000040030CA
:0E0000000008191EFF8185FF0FC00FE00F40A2
:00000001FF
